{
  "_format": "hh-sol-artifact-1",
  "contractName": "MyNFT",
  "sourceName": "contracts/MyNFT.sol",
  "abi": [
    {
      "inputs": [],
      "stateMutability": "nonpayable",
      "type": "constructor"
    },
    {
      "anonymous": false,
      "inputs": [
        {
          "indexed": true,
          "internalType": "address",
          "name": "owner",
          "type": "address"
        },
        {
          "indexed": true,
          "internalType": "address",
          "name": "approved",
          "type": "address"
        },
        {
          "indexed": true,
          "internalType": "uint256",
          "name": "tokenId",
          "type": "uint256"
        }
      ],
      "name": "Approval",
      "type": "event"
    },
    {
      "anonymous": false,
      "inputs": [
        {
          "indexed": true,
          "internalType": "address",
          "name": "owner",
          "type": "address"
        },
        {
          "indexed": true,
          "internalType": "address",
          "name": "operator",
          "type": "address"
        },
        {
          "indexed": false,
          "internalType": "bool",
          "name": "approved",
          "type": "bool"
        }
      ],
      "name": "ApprovalForAll",
      "type": "event"
    },
    {
      "anonymous": false,
      "inputs": [
        {
          "indexed": true,
          "internalType": "address",
          "name": "previousOwner",
          "type": "address"
        },
        {
          "indexed": true,
          "internalType": "address",
          "name": "newOwner",
          "type": "address"
        }
      ],
      "name": "OwnershipTransferred",
      "type": "event"
    },
    {
      "anonymous": false,
      "inputs": [
        {
          "indexed": true,
          "internalType": "address",
          "name": "from",
          "type": "address"
        },
        {
          "indexed": true,
          "internalType": "address",
          "name": "to",
          "type": "address"
        },
        {
          "indexed": true,
          "internalType": "uint256",
          "name": "tokenId",
          "type": "uint256"
        }
      ],
      "name": "Transfer",
      "type": "event"
    },
    {
      "inputs": [
        {
          "internalType": "string",
          "name": "newDescription",
          "type": "string"
        }
      ],
      "name": "addPromptDescription",
      "outputs": [],
      "stateMutability": "nonpayable",
      "type": "function"
    },
    {
      "inputs": [
        {
          "internalType": "address",
          "name": "to",
          "type": "address"
        },
        {
          "internalType": "uint256",
          "name": "tokenId",
          "type": "uint256"
        }
      ],
      "name": "approve",
      "outputs": [],
      "stateMutability": "nonpayable",
      "type": "function"
    },
    {
      "inputs": [
        {
          "internalType": "address",
          "name": "owner",
          "type": "address"
        }
      ],
      "name": "balanceOf",
      "outputs": [
        {
          "internalType": "uint256",
          "name": "",
          "type": "uint256"
        }
      ],
      "stateMutability": "view",
      "type": "function"
    },
    {
      "inputs": [],
      "name": "baseUrl",
      "outputs": [
        {
          "internalType": "string",
          "name": "",
          "type": "string"
        }
      ],
      "stateMutability": "view",
      "type": "function"
    },
    {
      "inputs": [
        {
          "internalType": "uint256",
          "name": "tokenId",
          "type": "uint256"
        }
      ],
      "name": "getApproved",
      "outputs": [
        {
          "internalType": "address",
          "name": "",
          "type": "address"
        }
      ],
      "stateMutability": "view",
      "type": "function"
    },
    {
      "inputs": [],
      "name": "getPromptDescriptions",
      "outputs": [
        {
          "internalType": "string[]",
          "name": "",
          "type": "string[]"
        }
      ],
      "stateMutability": "view",
      "type": "function"
    },
    {
      "inputs": [
        {
          "internalType": "address",
          "name": "owner",
          "type": "address"
        },
        {
          "internalType": "address",
          "name": "operator",
          "type": "address"
        }
      ],
      "name": "isApprovedForAll",
      "outputs": [
        {
          "internalType": "bool",
          "name": "",
          "type": "bool"
        }
      ],
      "stateMutability": "view",
      "type": "function"
    },
    {
      "inputs": [
        {
          "internalType": "uint256",
          "name": "quantity",
          "type": "uint256"
        }
      ],
      "name": "mint",
      "outputs": [],
      "stateMutability": "payable",
      "type": "function"
    },
    {
      "inputs": [],
      "name": "name",
      "outputs": [
        {
          "internalType": "string",
          "name": "",
          "type": "string"
        }
      ],
      "stateMutability": "view",
      "type": "function"
    },
    {
      "inputs": [],
      "name": "owner",
      "outputs": [
        {
          "internalType": "address",
          "name": "",
          "type": "address"
        }
      ],
      "stateMutability": "view",
      "type": "function"
    },
    {
      "inputs": [
        {
          "internalType": "uint256",
          "name": "tokenId",
          "type": "uint256"
        }
      ],
      "name": "ownerOf",
      "outputs": [
        {
          "internalType": "address",
          "name": "",
          "type": "address"
        }
      ],
      "stateMutability": "view",
      "type": "function"
    },
    {
      "inputs": [],
      "name": "renounceOwnership",
      "outputs": [],
      "stateMutability": "nonpayable",
      "type": "function"
    },
    {
      "inputs": [
        {
          "internalType": "address",
          "name": "from",
          "type": "address"
        },
        {
          "internalType": "address",
          "name": "to",
          "type": "address"
        },
        {
          "internalType": "uint256",
          "name": "tokenId",
          "type": "uint256"
        }
      ],
      "name": "safeTransferFrom",
      "outputs": [],
      "stateMutability": "nonpayable",
      "type": "function"
    },
    {
      "inputs": [
        {
          "internalType": "address",
          "name": "from",
          "type": "address"
        },
        {
          "internalType": "address",
          "name": "to",
          "type": "address"
        },
        {
          "internalType": "uint256",
          "name": "tokenId",
          "type": "uint256"
        },
        {
          "internalType": "bytes",
          "name": "data",
          "type": "bytes"
        }
      ],
      "name": "safeTransferFrom",
      "outputs": [],
      "stateMutability": "nonpayable",
      "type": "function"
    },
    {
      "inputs": [
        {
          "internalType": "address",
          "name": "operator",
          "type": "address"
        },
        {
          "internalType": "bool",
          "name": "approved",
          "type": "bool"
        }
      ],
      "name": "setApprovalForAll",
      "outputs": [],
      "stateMutability": "nonpayable",
      "type": "function"
    },
    {
      "inputs": [
        {
          "internalType": "bytes4",
          "name": "interfaceId",
          "type": "bytes4"
        }
      ],
      "name": "supportsInterface",
      "outputs": [
        {
          "internalType": "bool",
          "name": "",
          "type": "bool"
        }
      ],
      "stateMutability": "view",
      "type": "function"
    },
    {
      "inputs": [],
      "name": "symbol",
      "outputs": [
        {
          "internalType": "string",
          "name": "",
          "type": "string"
        }
      ],
      "stateMutability": "view",
      "type": "function"
    },
    {
      "inputs": [
        {
          "internalType": "uint256",
          "name": "index",
          "type": "uint256"
        }
      ],
      "name": "tokenByIndex",
      "outputs": [
        {
          "internalType": "uint256",
          "name": "",
          "type": "uint256"
        }
      ],
      "stateMutability": "view",
      "type": "function"
    },
    {
      "inputs": [
        {
          "internalType": "address",
          "name": "owner",
          "type": "address"
        },
        {
          "internalType": "uint256",
          "name": "index",
          "type": "uint256"
        }
      ],
      "name": "tokenOfOwnerByIndex",
      "outputs": [
        {
          "internalType": "uint256",
          "name": "",
          "type": "uint256"
        }
      ],
      "stateMutability": "view",
      "type": "function"
    },
    {
      "inputs": [
        {
          "internalType": "uint256",
          "name": "tokenId",
          "type": "uint256"
        }
      ],
      "name": "tokenURI",
      "outputs": [
        {
          "internalType": "string",
          "name": "",
          "type": "string"
        }
      ],
      "stateMutability": "view",
      "type": "function"
    },
    {
      "inputs": [],
      "name": "totalSupply",
      "outputs": [
        {
          "internalType": "uint256",
          "name": "",
          "type": "uint256"
        }
      ],
      "stateMutability": "view",
      "type": "function"
    },
    {
      "inputs": [
        {
          "internalType": "address",
          "name": "from",
          "type": "address"
        },
        {
          "internalType": "address",
          "name": "to",
          "type": "address"
        },
        {
          "internalType": "uint256",
          "name": "tokenId",
          "type": "uint256"
        }
      ],
      "name": "transferFrom",
      "outputs": [],
      "stateMutability": "nonpayable",
      "type": "function"
    },
    {
      "inputs": [
        {
          "internalType": "address",
          "name": "newOwner",
          "type": "address"
        }
      ],
      "name": "transferOwnership",
      "outputs": [],
      "stateMutability": "nonpayable",
      "type": "function"
    },
    {
      "inputs": [
        {
          "internalType": "string",
          "name": "newBaseUrl",
          "type": "string"
        }
      ],
      "name": "updateBaseUrl",
      "outputs": [],
      "stateMutability": "nonpayable",
      "type": "function"
    }
  ],
  "bytecode": "0x608060405260405180608001604052806043815260200162004f3460439139600c90816200002e919062000f09565b503480156200003c57600080fd5b506040518060400160405280600b81526020017f497368692053696e676c610000000000000000000000000000000000000000008152506040518060400160405280600381526020017f49205300000000000000000000000000000000000000000000000000000000008152508160009081620000ba919062000f09565b508060019081620000cc919062000f09565b505050620000ef620000e36200028060201b60201c565b6200028860201b60201c565b6040518060a001604052806040518060400160405280601181526020017f6269726473206f6e20746865207472656500000000000000000000000000000081525081526020016040518060400160405280600c81526020017f6669736820696e2073656120000000000000000000000000000000000000000081525081526020016040518060400160405280600c81526020017f637261627320696e2070616e000000000000000000000000000000000000000081525081526020016040518060400160405280601181526020017f7761746368206f6e207468652077616c6c00000000000000000000000000000081525081526020016040518060400160405280601181526020017f70696c6c6f77206f6e2074686520626564000000000000000000000000000000815250815250600b9060056200023192919062000ba2565b5060005b600b80549050811015620002795762000263336001836200025791906200101f565b6200034e60201b60201c565b808062000270906200105a565b91505062000235565b5062001365565b600033905090565b6000600a60009054906101000a900473ffffffffffffffffffffffffffffffffffffffff16905081600a60006101000a81548173ffffffffffffffffffffffffffffffffffffffff021916908373ffffffffffffffffffffffffffffffffffffffff1602179055508173ffffffffffffffffffffffffffffffffffffffff168173ffffffffffffffffffffffffffffffffffffffff167f8be0079c531659141344cd1fd0a4f28419497f9722a3daafe3b4186f6b6457e060405160405180910390a35050565b600073ffffffffffffffffffffffffffffffffffffffff168273ffffffffffffffffffffffffffffffffffffffff1603620003c0576040517f08c379a0000000000000000000000000000000000000000000000000000000008152600401620003b79062001108565b60405180910390fd5b620003d1816200059460201b60201c565b1562000414576040517f08c379a00000000000000000000000000000000000000000000000000000000081526004016200040b906200117a565b60405180910390fd5b6200042a600083836001620005dd60201b60201c565b6200043b816200059460201b60201c565b156200047e576040517f08c379a000000000000000000000000000000000000000000000000000000000815260040162000475906200117a565b60405180910390fd5b6001600360008473ffffffffffffffffffffffffffffffffffffffff1673ffffffffffffffffffffffffffffffffffffffff16815260200190815260200160002060008282540192505081905550816002600083815260200190815260200160002060006101000a81548173ffffffffffffffffffffffffffffffffffffffff021916908373ffffffffffffffffffffffffffffffffffffffff160217905550808273ffffffffffffffffffffffffffffffffffffffff16600073ffffffffffffffffffffffffffffffffffffffff167fddf252ad1be2c89b69c2b068fc378daa952ba7f163c4a11628f55a4df523b3ef60405160405180910390a4620005906000838360016200077160201b60201c565b5050565b60008073ffffffffffffffffffffffffffffffffffffffff16620005be836200077760201b60201c565b73ffffffffffffffffffffffffffffffffffffffff1614159050919050565b620005f684848484620007b460201b620010701760201c565b60018111156200063d576040517f08c379a0000000000000000000000000000000000000000000000000000000008152600401620006349062001212565b60405180910390fd5b6000829050600073ffffffffffffffffffffffffffffffffffffffff168573ffffffffffffffffffffffffffffffffffffffff16036200068e576200068881620007ba60201b60201c565b620006d6565b8373ffffffffffffffffffffffffffffffffffffffff168573ffffffffffffffffffffffffffffffffffffffff1614620006d557620006d485826200080360201b60201c565b5b5b600073ffffffffffffffffffffffffffffffffffffffff168473ffffffffffffffffffffffffffffffffffffffff160362000722576200071c816200098060201b60201c565b6200076a565b8473ffffffffffffffffffffffffffffffffffffffff168473ffffffffffffffffffffffffffffffffffffffff1614620007695762000768848262000a5c60201b60201c565b5b5b5050505050565b50505050565b60006002600083815260200190815260200160002060009054906101000a900473ffffffffffffffffffffffffffffffffffffffff169050919050565b50505050565b6008805490506009600083815260200190815260200160002081905550600881908060018154018082558091505060019003906000526020600020016000909190919091505550565b600060016200081d8462000ae860201b62000ad51760201c565b62000829919062001234565b90506000600760008481526020019081526020016000205490508181146200090f576000600660008673ffffffffffffffffffffffffffffffffffffffff1673ffffffffffffffffffffffffffffffffffffffff168152602001908152602001600020600084815260200190815260200160002054905080600660008773ffffffffffffffffffffffffffffffffffffffff1673ffffffffffffffffffffffffffffffffffffffff168152602001908152602001600020600084815260200190815260200160002081905550816007600083815260200190815260200160002081905550505b6007600084815260200190815260200160002060009055600660008573ffffffffffffffffffffffffffffffffffffffff1673ffffffffffffffffffffffffffffffffffffffff16815260200190815260200160002060008381526020019081526020016000206000905550505050565b6000600160088054905062000996919062001234565b9050600060096000848152602001908152602001600020549050600060088381548110620009c957620009c86200126f565b5b906000526020600020015490508060088381548110620009ee57620009ed6200126f565b5b90600052602060002001819055508160096000838152602001908152602001600020819055506009600085815260200190815260200160002060009055600880548062000a405762000a3f6200129e565b5b6001900381819060005260206000200160009055905550505050565b600062000a748362000ae860201b62000ad51760201c565b905081600660008573ffffffffffffffffffffffffffffffffffffffff1673ffffffffffffffffffffffffffffffffffffffff168152602001908152602001600020600083815260200190815260200160002081905550806007600084815260200190815260200160002081905550505050565b60008073ffffffffffffffffffffffffffffffffffffffff168273ffffffffffffffffffffffffffffffffffffffff160362000b5b576040517f08c379a000000000000000000000000000000000000000000000000000000000815260040162000b529062001343565b60405180910390fd5b600360008373ffffffffffffffffffffffffffffffffffffffff1673ffffffffffffffffffffffffffffffffffffffff168152602001908152602001600020549050919050565b82805482825590600052602060002090810192821562000bef579160200282015b8281111562000bee57825182908162000bdd919062000f09565b509160200191906001019062000bc3565b5b50905062000bfe919062000c02565b5090565b5b8082111562000c26576000818162000c1c919062000c2a565b5060010162000c03565b5090565b50805462000c389062000cf8565b6000825580601f1062000c4c575062000c6d565b601f01602090049060005260206000209081019062000c6c919062000c70565b5b50565b5b8082111562000c8b57600081600090555060010162000c71565b5090565b600081519050919050565b7f4e487b7100000000000000000000000000000000000000000000000000000000600052604160045260246000fd5b7f4e487b7100000000000000000000000000000000000000000000000000000000600052602260045260246000fd5b6000600282049050600182168062000d1157607f821691505b60208210810362000d275762000d2662000cc9565b5b50919050565b60008190508160005260206000209050919050565b60006020601f8301049050919050565b600082821b905092915050565b60006008830262000d917fffffffffffffffffffffffffffffffffffffffffffffffffffffffffffffffff8262000d52565b62000d9d868362000d52565b95508019841693508086168417925050509392505050565b6000819050919050565b6000819050919050565b600062000dea62000de462000dde8462000db5565b62000dbf565b62000db5565b9050919050565b6000819050919050565b62000e068362000dc9565b62000e1e62000e158262000df1565b84845462000d5f565b825550505050565b600090565b62000e3562000e26565b62000e4281848462000dfb565b505050565b5b8181101562000e6a5762000e5e60008262000e2b565b60018101905062000e48565b5050565b601f82111562000eb95762000e838162000d2d565b62000e8e8462000d42565b8101602085101562000e9e578190505b62000eb662000ead8562000d42565b83018262000e47565b50505b505050565b600082821c905092915050565b600062000ede6000198460080262000ebe565b1980831691505092915050565b600062000ef9838362000ecb565b9150826002028217905092915050565b62000f148262000c8f565b67ffffffffffffffff81111562000f305762000f2f62000c9a565b5b62000f3c825462000cf8565b62000f4982828562000e6e565b600060209050601f83116001811462000f81576000841562000f6c578287015190505b62000f78858262000eeb565b86555062000fe8565b601f19841662000f918662000d2d565b60005b8281101562000fbb5784890151825560018201915060208501945060208101905062000f94565b8683101562000fdb578489015162000fd7601f89168262000ecb565b8355505b6001600288020188555050505b505050505050565b7f4e487b7100000000000000000000000000000000000000000000000000000000600052601160045260246000fd5b60006200102c8262000db5565b9150620010398362000db5565b925082820190508082111562001054576200105362000ff0565b5b92915050565b6000620010678262000db5565b91507fffffffffffffffffffffffffffffffffffffffffffffffffffffffffffffffff82036200109c576200109b62000ff0565b5b600182019050919050565b600082825260208201905092915050565b7f4552433732313a206d696e7420746f20746865207a65726f2061646472657373600082015250565b6000620010f0602083620010a7565b9150620010fd82620010b8565b602082019050919050565b600060208201905081810360008301526200112381620010e1565b9050919050565b7f4552433732313a20746f6b656e20616c7265616479206d696e74656400000000600082015250565b600062001162601c83620010a7565b91506200116f826200112a565b602082019050919050565b60006020820190508181036000830152620011958162001153565b9050919050565b7f455243373231456e756d657261626c653a20636f6e736563757469766520747260008201527f616e7366657273206e6f7420737570706f727465640000000000000000000000602082015250565b6000620011fa603583620010a7565b915062001207826200119c565b604082019050919050565b600060208201905081810360008301526200122d81620011eb565b9050919050565b6000620012418262000db5565b91506200124e8362000db5565b925082820390508181111562001269576200126862000ff0565b5b92915050565b7f4e487b7100000000000000000000000000000000000000000000000000000000600052603260045260246000fd5b7f4e487b7100000000000000000000000000000000000000000000000000000000600052603160045260246000fd5b7f4552433732313a2061646472657373207a65726f206973206e6f74206120766160008201527f6c6964206f776e65720000000000000000000000000000000000000000000000602082015250565b60006200132b602983620010a7565b91506200133882620012cd565b604082019050919050565b600060208201905081810360008301526200135e816200131c565b9050919050565b613bbf80620013756000396000f3fe60806040526004361061014b5760003560e01c8063715018a6116100b6578063bbea370c1161006f578063bbea370c14610495578063c64601b6146104be578063c87b56dd146104e9578063e985e9c514610526578063ea21e5eb14610563578063f2fde38b1461058c5761014b565b8063715018a6146103ba5780638da5cb5b146103d157806395d89b41146103fc578063a0712d6814610427578063a22cb46514610443578063b88d4fde1461046c5761014b565b80632f745c59116101085780632f745c591461027257806342842e0e146102af5780634f6ccce7146102d85780635bcabf04146103155780636352211e1461034057806370a082311461037d5761014b565b806301ffc9a71461015057806306fdde031461018d578063081812fc146101b8578063095ea7b3146101f557806318160ddd1461021e57806323b872dd14610249575b600080fd5b34801561015c57600080fd5b5061017760048036038101906101729190612536565b6105b5565b604051610184919061257e565b60405180910390f35b34801561019957600080fd5b506101a261062f565b6040516101af9190612629565b60405180910390f35b3480156101c457600080fd5b506101df60048036038101906101da9190612681565b6106c1565b6040516101ec91906126ef565b60405180910390f35b34801561020157600080fd5b5061021c60048036038101906102179190612736565b610707565b005b34801561022a57600080fd5b5061023361081e565b6040516102409190612785565b60405180910390f35b34801561025557600080fd5b50610270600480360381019061026b91906127a0565b61082b565b005b34801561027e57600080fd5b5061029960048036038101906102949190612736565b61088b565b6040516102a69190612785565b60405180910390f35b3480156102bb57600080fd5b506102d660048036038101906102d191906127a0565b610930565b005b3480156102e457600080fd5b506102ff60048036038101906102fa9190612681565b610950565b60405161030c9190612785565b60405180910390f35b34801561032157600080fd5b5061032a6109c1565b6040516103379190612629565b60405180910390f35b34801561034c57600080fd5b5061036760048036038101906103629190612681565b610a4f565b60405161037491906126ef565b60405180910390f35b34801561038957600080fd5b506103a4600480360381019061039f91906127f3565b610ad5565b6040516103b19190612785565b60405180910390f35b3480156103c657600080fd5b506103cf610b8c565b005b3480156103dd57600080fd5b506103e6610ba0565b6040516103f391906126ef565b60405180910390f35b34801561040857600080fd5b50610411610bca565b60405161041e9190612629565b60405180910390f35b610441600480360381019061043c9190612681565b610c5c565b005b34801561044f57600080fd5b5061046a6004803603810190610465919061284c565b610d45565b005b34801561047857600080fd5b50610493600480360381019061048e91906129c1565b610d5b565b005b3480156104a157600080fd5b506104bc60048036038101906104b79190612ae5565b610dbd565b005b3480156104ca57600080fd5b506104d3610dfd565b6040516104e09190612c3a565b60405180910390f35b3480156104f557600080fd5b50610510600480360381019061050b9190612681565b610ed6565b60405161051d9190612629565b60405180910390f35b34801561053257600080fd5b5061054d60048036038101906105489190612c5c565b610f3e565b60405161055a919061257e565b60405180910390f35b34801561056f57600080fd5b5061058a60048036038101906105859190612ae5565b610fd2565b005b34801561059857600080fd5b506105b360048036038101906105ae91906127f3565b610fed565b005b60007f780e9d63000000000000000000000000000000000000000000000000000000007bffffffffffffffffffffffffffffffffffffffffffffffffffffffff1916827bffffffffffffffffffffffffffffffffffffffffffffffffffffffff19161480610628575061062782611076565b5b9050919050565b60606000805461063e90612ccb565b80601f016020809104026020016040519081016040528092919081815260200182805461066a90612ccb565b80156106b75780601f1061068c576101008083540402835291602001916106b7565b820191906000526020600020905b81548152906001019060200180831161069a57829003601f168201915b5050505050905090565b60006106cc82611158565b6004600083815260200190815260200160002060009054906101000a900473ffffffffffffffffffffffffffffffffffffffff169050919050565b600061071282610a4f565b90508073ffffffffffffffffffffffffffffffffffffffff168373ffffffffffffffffffffffffffffffffffffffff1603610782576040517f08c379a000000000000000000000000000000000000000000000000000000000815260040161077990612d6e565b60405180910390fd5b8073ffffffffffffffffffffffffffffffffffffffff166107a16111a3565b73ffffffffffffffffffffffffffffffffffffffff1614806107d057506107cf816107ca6111a3565b610f3e565b5b61080f576040517f08c379a000000000000000000000000000000000000000000000000000000000815260040161080690612e00565b60405180910390fd5b61081983836111ab565b505050565b6000600880549050905090565b61083c6108366111a3565b82611264565b61087b576040517f08c379a000000000000000000000000000000000000000000000000000000000815260040161087290612e92565b60405180910390fd5b6108868383836112f9565b505050565b600061089683610ad5565b82106108d7576040517f08c379a00000000000000000000000000000000000000000000000000000000081526004016108ce90612f24565b60405180910390fd5b600660008473ffffffffffffffffffffffffffffffffffffffff1673ffffffffffffffffffffffffffffffffffffffff168152602001908152602001600020600083815260200190815260200160002054905092915050565b61094b83838360405180602001604052806000815250610d5b565b505050565b600061095a61081e565b821061099b576040517f08c379a000000000000000000000000000000000000000000000000000000000815260040161099290612fb6565b60405180910390fd5b600882815481106109af576109ae612fd6565b5b90600052602060002001549050919050565b600c80546109ce90612ccb565b80601f01602080910402602001604051908101604052809291908181526020018280546109fa90612ccb565b8015610a475780601f10610a1c57610100808354040283529160200191610a47565b820191906000526020600020905b815481529060010190602001808311610a2a57829003601f168201915b505050505081565b600080610a5b836115f2565b9050600073ffffffffffffffffffffffffffffffffffffffff168173ffffffffffffffffffffffffffffffffffffffff1603610acc576040517f08c379a0000000000000000000000000000000000000000000000000000000008152600401610ac390613051565b60405180910390fd5b80915050919050565b60008073ffffffffffffffffffffffffffffffffffffffff168273ffffffffffffffffffffffffffffffffffffffff1603610b45576040517f08c379a0000000000000000000000000000000000000000000000000000000008152600401610b3c906130e3565b60405180910390fd5b600360008373ffffffffffffffffffffffffffffffffffffffff1673ffffffffffffffffffffffffffffffffffffffff168152602001908152602001600020549050919050565b610b9461162f565b610b9e60006116ad565b565b6000600a60009054906101000a900473ffffffffffffffffffffffffffffffffffffffff16905090565b606060018054610bd990612ccb565b80601f0160208091040260200160405190810160405280929190818152602001828054610c0590612ccb565b8015610c525780601f10610c2757610100808354040283529160200191610c52565b820191906000526020600020905b815481529060010190602001808311610c3557829003601f168201915b5050505050905090565b610c6461162f565b60008111610ca7576040517f08c379a0000000000000000000000000000000000000000000000000000000008152600401610c9e90613175565b60405180910390fd5b606481610cb261081e565b610cbc91906131c4565b1115610cfd576040517f08c379a0000000000000000000000000000000000000000000000000000000008152600401610cf490613244565b60405180910390fd5b600080600090505b82811015610d40576001610d1761081e565b610d2191906131c4565b9150610d2d3383611773565b8080610d3890613264565b915050610d05565b505050565b610d57610d506111a3565b8383611990565b5050565b610d6c610d666111a3565b83611264565b610dab576040517f08c379a0000000000000000000000000000000000000000000000000000000008152600401610da290612e92565b60405180910390fd5b610db784848484611afc565b50505050565b610dc561162f565b600b81908060018154018082558091505060019003906000526020600020016000909190919091509081610df99190613458565b5050565b6060600b805480602002602001604051908101604052809291908181526020016000905b82821015610ecd578382906000526020600020018054610e4090612ccb565b80601f0160208091040260200160405190810160405280929190818152602001828054610e6c90612ccb565b8015610eb95780601f10610e8e57610100808354040283529160200191610eb9565b820191906000526020600020905b815481529060010190602001808311610e9c57829003601f168201915b505050505081526020019060010190610e21565b50505050905090565b6060610ee182611158565b6000610eeb611b58565b90506000815111610f0b5760405180602001604052806000815250610f36565b80610f1584611bea565b604051602001610f26929190613566565b6040516020818303038152906040525b915050919050565b6000600560008473ffffffffffffffffffffffffffffffffffffffff1673ffffffffffffffffffffffffffffffffffffffff16815260200190815260200160002060008373ffffffffffffffffffffffffffffffffffffffff1673ffffffffffffffffffffffffffffffffffffffff16815260200190815260200160002060009054906101000a900460ff16905092915050565b610fda61162f565b80600c9081610fe99190613458565b5050565b610ff561162f565b600073ffffffffffffffffffffffffffffffffffffffff168173ffffffffffffffffffffffffffffffffffffffff1603611064576040517f08c379a000000000000000000000000000000000000000000000000000000000815260040161105b906135fc565b60405180910390fd5b61106d816116ad565b50565b50505050565b60007f80ac58cd000000000000000000000000000000000000000000000000000000007bffffffffffffffffffffffffffffffffffffffffffffffffffffffff1916827bffffffffffffffffffffffffffffffffffffffffffffffffffffffff1916148061114157507f5b5e139f000000000000000000000000000000000000000000000000000000007bffffffffffffffffffffffffffffffffffffffffffffffffffffffff1916827bffffffffffffffffffffffffffffffffffffffffffffffffffffffff1916145b80611151575061115082611cb8565b5b9050919050565b61116181611d22565b6111a0576040517f08c379a000000000000000000000000000000000000000000000000000000000815260040161119790613051565b60405180910390fd5b50565b600033905090565b816004600083815260200190815260200160002060006101000a81548173ffffffffffffffffffffffffffffffffffffffff021916908373ffffffffffffffffffffffffffffffffffffffff160217905550808273ffffffffffffffffffffffffffffffffffffffff1661121e83610a4f565b73ffffffffffffffffffffffffffffffffffffffff167f8c5be1e5ebec7d5bd14f71427d1e84f3dd0314c0f7b2291e5b200ac8c7c3b92560405160405180910390a45050565b60008061127083610a4f565b90508073ffffffffffffffffffffffffffffffffffffffff168473ffffffffffffffffffffffffffffffffffffffff1614806112b257506112b18185610f3e565b5b806112f057508373ffffffffffffffffffffffffffffffffffffffff166112d8846106c1565b73ffffffffffffffffffffffffffffffffffffffff16145b91505092915050565b8273ffffffffffffffffffffffffffffffffffffffff1661131982610a4f565b73ffffffffffffffffffffffffffffffffffffffff161461136f576040517f08c379a00000000000000000000000000000000000000000000000000000000081526004016113669061368e565b60405180910390fd5b600073ffffffffffffffffffffffffffffffffffffffff168273ffffffffffffffffffffffffffffffffffffffff16036113de576040517f08c379a00000000000000000000000000000000000000000000000000000000081526004016113d590613720565b60405180910390fd5b6113eb8383836001611d63565b8273ffffffffffffffffffffffffffffffffffffffff1661140b82610a4f565b73ffffffffffffffffffffffffffffffffffffffff1614611461576040517f08c379a00000000000000000000000000000000000000000000000000000000081526004016114589061368e565b60405180910390fd5b6004600082815260200190815260200160002060006101000a81549073ffffffffffffffffffffffffffffffffffffffff02191690556001600360008573ffffffffffffffffffffffffffffffffffffffff1673ffffffffffffffffffffffffffffffffffffffff168152602001908152602001600020600082825403925050819055506001600360008473ffffffffffffffffffffffffffffffffffffffff1673ffffffffffffffffffffffffffffffffffffffff16815260200190815260200160002060008282540192505081905550816002600083815260200190815260200160002060006101000a81548173ffffffffffffffffffffffffffffffffffffffff021916908373ffffffffffffffffffffffffffffffffffffffff160217905550808273ffffffffffffffffffffffffffffffffffffffff168473ffffffffffffffffffffffffffffffffffffffff167fddf252ad1be2c89b69c2b068fc378daa952ba7f163c4a11628f55a4df523b3ef60405160405180910390a46115ed8383836001611ec1565b505050565b60006002600083815260200190815260200160002060009054906101000a900473ffffffffffffffffffffffffffffffffffffffff169050919050565b6116376111a3565b73ffffffffffffffffffffffffffffffffffffffff16611655610ba0565b73ffffffffffffffffffffffffffffffffffffffff16146116ab576040517f08c379a00000000000000000000000000000000000000000000000000000000081526004016116a29061378c565b60405180910390fd5b565b6000600a60009054906101000a900473ffffffffffffffffffffffffffffffffffffffff16905081600a60006101000a81548173ffffffffffffffffffffffffffffffffffffffff021916908373ffffffffffffffffffffffffffffffffffffffff1602179055508173ffffffffffffffffffffffffffffffffffffffff168173ffffffffffffffffffffffffffffffffffffffff167f8be0079c531659141344cd1fd0a4f28419497f9722a3daafe3b4186f6b6457e060405160405180910390a35050565b600073ffffffffffffffffffffffffffffffffffffffff168273ffffffffffffffffffffffffffffffffffffffff16036117e2576040517f08c379a00000000000000000000000000000000000000000000000000000000081526004016117d9906137f8565b60405180910390fd5b6117eb81611d22565b1561182b576040517f08c379a000000000000000000000000000000000000000000000000000000000815260040161182290613864565b60405180910390fd5b611839600083836001611d63565b61184281611d22565b15611882576040517f08c379a000000000000000000000000000000000000000000000000000000000815260040161187990613864565b60405180910390fd5b6001600360008473ffffffffffffffffffffffffffffffffffffffff1673ffffffffffffffffffffffffffffffffffffffff16815260200190815260200160002060008282540192505081905550816002600083815260200190815260200160002060006101000a81548173ffffffffffffffffffffffffffffffffffffffff021916908373ffffffffffffffffffffffffffffffffffffffff160217905550808273ffffffffffffffffffffffffffffffffffffffff16600073ffffffffffffffffffffffffffffffffffffffff167fddf252ad1be2c89b69c2b068fc378daa952ba7f163c4a11628f55a4df523b3ef60405160405180910390a461198c600083836001611ec1565b5050565b8173ffffffffffffffffffffffffffffffffffffffff168373ffffffffffffffffffffffffffffffffffffffff16036119fe576040517f08c379a00000000000000000000000000000000000000000000000000000000081526004016119f5906138d0565b60405180910390fd5b80600560008573ffffffffffffffffffffffffffffffffffffffff1673ffffffffffffffffffffffffffffffffffffffff16815260200190815260200160002060008473ffffffffffffffffffffffffffffffffffffffff1673ffffffffffffffffffffffffffffffffffffffff16815260200190815260200160002060006101000a81548160ff0219169083151502179055508173ffffffffffffffffffffffffffffffffffffffff168373ffffffffffffffffffffffffffffffffffffffff167f17307eab39ab6107e8899845ad3d59bd9653f200f220920489ca2b5937696c3183604051611aef919061257e565b60405180910390a3505050565b611b078484846112f9565b611b1384848484611ec7565b611b52576040517f08c379a0000000000000000000000000000000000000000000000000000000008152600401611b4990613962565b60405180910390fd5b50505050565b6060600c8054611b6790612ccb565b80601f0160208091040260200160405190810160405280929190818152602001828054611b9390612ccb565b8015611be05780601f10611bb557610100808354040283529160200191611be0565b820191906000526020600020905b815481529060010190602001808311611bc357829003601f168201915b5050505050905090565b606060006001611bf98461204e565b01905060008167ffffffffffffffff811115611c1857611c17612896565b5b6040519080825280601f01601f191660200182016040528015611c4a5781602001600182028036833780820191505090505b509050600082602001820190505b600115611cad578080600190039150507f3031323334353637383961626364656600000000000000000000000000000000600a86061a8153600a8581611ca157611ca0613982565b5b04945060008503611c58575b819350505050919050565b60007f01ffc9a7000000000000000000000000000000000000000000000000000000007bffffffffffffffffffffffffffffffffffffffffffffffffffffffff1916827bffffffffffffffffffffffffffffffffffffffffffffffffffffffff1916149050919050565b60008073ffffffffffffffffffffffffffffffffffffffff16611d44836115f2565b73ffffffffffffffffffffffffffffffffffffffff1614159050919050565b611d6f84848484611070565b6001811115611db3576040517f08c379a0000000000000000000000000000000000000000000000000000000008152600401611daa90613a23565b60405180910390fd5b6000829050600073ffffffffffffffffffffffffffffffffffffffff168573ffffffffffffffffffffffffffffffffffffffff1603611dfa57611df5816121a1565b611e39565b8373ffffffffffffffffffffffffffffffffffffffff168573ffffffffffffffffffffffffffffffffffffffff1614611e3857611e3785826121ea565b5b5b600073ffffffffffffffffffffffffffffffffffffffff168473ffffffffffffffffffffffffffffffffffffffff1603611e7b57611e7681612357565b611eba565b8473ffffffffffffffffffffffffffffffffffffffff168473ffffffffffffffffffffffffffffffffffffffff1614611eb957611eb88482612428565b5b5b5050505050565b50505050565b6000611ee88473ffffffffffffffffffffffffffffffffffffffff166124a7565b15612041578373ffffffffffffffffffffffffffffffffffffffff1663150b7a02611f116111a3565b8786866040518563ffffffff1660e01b8152600401611f339493929190613a98565b6020604051808303816000875af1925050508015611f6f57506040513d601f19601f82011682018060405250810190611f6c9190613af9565b60015b611ff1573d8060008114611f9f576040519150601f19603f3d011682016040523d82523d6000602084013e611fa4565b606091505b506000815103611fe9576040517f08c379a0000000000000000000000000000000000000000000000000000000008152600401611fe090613962565b60405180910390fd5b805181602001fd5b63150b7a0260e01b7bffffffffffffffffffffffffffffffffffffffffffffffffffffffff1916817bffffffffffffffffffffffffffffffffffffffffffffffffffffffff191614915050612046565b600190505b949350505050565b600080600090507a184f03e93ff9f4daa797ed6e38ed64bf6a1f01000000000000000083106120ac577a184f03e93ff9f4daa797ed6e38ed64bf6a1f01000000000000000083816120a2576120a1613982565b5b0492506040810190505b6d04ee2d6d415b85acef810000000083106120e9576d04ee2d6d415b85acef810000000083816120df576120de613982565b5b0492506020810190505b662386f26fc10000831061211857662386f26fc10000838161210e5761210d613982565b5b0492506010810190505b6305f5e1008310612141576305f5e100838161213757612136613982565b5b0492506008810190505b612710831061216657612710838161215c5761215b613982565b5b0492506004810190505b60648310612189576064838161217f5761217e613982565b5b0492506002810190505b600a8310612198576001810190505b80915050919050565b6008805490506009600083815260200190815260200160002081905550600881908060018154018082558091505060019003906000526020600020016000909190919091505550565b600060016121f784610ad5565b6122019190613b26565b90506000600760008481526020019081526020016000205490508181146122e6576000600660008673ffffffffffffffffffffffffffffffffffffffff1673ffffffffffffffffffffffffffffffffffffffff168152602001908152602001600020600084815260200190815260200160002054905080600660008773ffffffffffffffffffffffffffffffffffffffff1673ffffffffffffffffffffffffffffffffffffffff168152602001908152602001600020600084815260200190815260200160002081905550816007600083815260200190815260200160002081905550505b6007600084815260200190815260200160002060009055600660008573ffffffffffffffffffffffffffffffffffffffff1673ffffffffffffffffffffffffffffffffffffffff16815260200190815260200160002060008381526020019081526020016000206000905550505050565b6000600160088054905061236b9190613b26565b905060006009600084815260200190815260200160002054905060006008838154811061239b5761239a612fd6565b5b9060005260206000200154905080600883815481106123bd576123bc612fd6565b5b90600052602060002001819055508160096000838152602001908152602001600020819055506009600085815260200190815260200160002060009055600880548061240c5761240b613b5a565b5b6001900381819060005260206000200160009055905550505050565b600061243383610ad5565b905081600660008573ffffffffffffffffffffffffffffffffffffffff1673ffffffffffffffffffffffffffffffffffffffff168152602001908152602001600020600083815260200190815260200160002081905550806007600084815260200190815260200160002081905550505050565b6000808273ffffffffffffffffffffffffffffffffffffffff163b119050919050565b6000604051905090565b600080fd5b600080fd5b60007fffffffff0000000000000000000000000000000000000000000000000000000082169050919050565b612513816124de565b811461251e57600080fd5b50565b6000813590506125308161250a565b92915050565b60006020828403121561254c5761254b6124d4565b5b600061255a84828501612521565b91505092915050565b60008115159050919050565b61257881612563565b82525050565b6000602082019050612593600083018461256f565b92915050565b600081519050919050565b600082825260208201905092915050565b60005b838110156125d35780820151818401526020810190506125b8565b60008484015250505050565b6000601f19601f8301169050919050565b60006125fb82612599565b61260581856125a4565b93506126158185602086016125b5565b61261e816125df565b840191505092915050565b6000602082019050818103600083015261264381846125f0565b905092915050565b6000819050919050565b61265e8161264b565b811461266957600080fd5b50565b60008135905061267b81612655565b92915050565b600060208284031215612697576126966124d4565b5b60006126a58482850161266c565b91505092915050565b600073ffffffffffffffffffffffffffffffffffffffff82169050919050565b60006126d9826126ae565b9050919050565b6126e9816126ce565b82525050565b600060208201905061270460008301846126e0565b92915050565b612713816126ce565b811461271e57600080fd5b50565b6000813590506127308161270a565b92915050565b6000806040838503121561274d5761274c6124d4565b5b600061275b85828601612721565b925050602061276c8582860161266c565b9150509250929050565b61277f8161264b565b82525050565b600060208201905061279a6000830184612776565b92915050565b6000806000606084860312156127b9576127b86124d4565b5b60006127c786828701612721565b93505060206127d886828701612721565b92505060406127e98682870161266c565b9150509250925092565b600060208284031215612809576128086124d4565b5b600061281784828501612721565b91505092915050565b61282981612563565b811461283457600080fd5b50565b60008135905061284681612820565b92915050565b60008060408385031215612863576128626124d4565b5b600061287185828601612721565b925050602061288285828601612837565b9150509250929050565b600080fd5b600080fd5b7f4e487b7100000000000000000000000000000000000000000000000000000000600052604160045260246000fd5b6128ce826125df565b810181811067ffffffffffffffff821117156128ed576128ec612896565b5b80604052505050565b60006129006124ca565b905061290c82826128c5565b919050565b600067ffffffffffffffff82111561292c5761292b612896565b5b612935826125df565b9050602081019050919050565b82818337600083830152505050565b600061296461295f84612911565b6128f6565b9050828152602081018484840111156129805761297f612891565b5b61298b848285612942565b509392505050565b600082601f8301126129a8576129a761288c565b5b81356129b8848260208601612951565b91505092915050565b600080600080608085870312156129db576129da6124d4565b5b60006129e987828801612721565b94505060206129fa87828801612721565b9350506040612a0b8782880161266c565b925050606085013567ffffffffffffffff811115612a2c57612a2b6124d9565b5b612a3887828801612993565b91505092959194509250565b600067ffffffffffffffff821115612a5f57612a5e612896565b5b612a68826125df565b9050602081019050919050565b6000612a88612a8384612a44565b6128f6565b905082815260208101848484011115612aa457612aa3612891565b5b612aaf848285612942565b509392505050565b600082601f830112612acc57612acb61288c565b5b8135612adc848260208601612a75565b91505092915050565b600060208284031215612afb57612afa6124d4565b5b600082013567ffffffffffffffff811115612b1957612b186124d9565b5b612b2584828501612ab7565b91505092915050565b600081519050919050565b600082825260208201905092915050565b6000819050602082019050919050565b600082825260208201905092915050565b6000612b7682612599565b612b808185612b5a565b9350612b908185602086016125b5565b612b99816125df565b840191505092915050565b6000612bb08383612b6b565b905092915050565b6000602082019050919050565b6000612bd082612b2e565b612bda8185612b39565b935083602082028501612bec85612b4a565b8060005b85811015612c285784840389528151612c098582612ba4565b9450612c1483612bb8565b925060208a01995050600181019050612bf0565b50829750879550505050505092915050565b60006020820190508181036000830152612c548184612bc5565b905092915050565b60008060408385031215612c7357612c726124d4565b5b6000612c8185828601612721565b9250506020612c9285828601612721565b9150509250929050565b7f4e487b7100000000000000000000000000000000000000000000000000000000600052602260045260246000fd5b60006002820490506001821680612ce357607f821691505b602082108103612cf657612cf5612c9c565b5b50919050565b7f4552433732313a20617070726f76616c20746f2063757272656e74206f776e6560008201527f7200000000000000000000000000000000000000000000000000000000000000602082015250565b6000612d586021836125a4565b9150612d6382612cfc565b604082019050919050565b60006020820190508181036000830152612d8781612d4b565b9050919050565b7f4552433732313a20617070726f76652063616c6c6572206973206e6f7420746f60008201527f6b656e206f776e6572206f7220617070726f76656420666f7220616c6c000000602082015250565b6000612dea603d836125a4565b9150612df582612d8e565b604082019050919050565b60006020820190508181036000830152612e1981612ddd565b9050919050565b7f4552433732313a2063616c6c6572206973206e6f7420746f6b656e206f776e6560008201527f72206f7220617070726f76656400000000000000000000000000000000000000602082015250565b6000612e7c602d836125a4565b9150612e8782612e20565b604082019050919050565b60006020820190508181036000830152612eab81612e6f565b9050919050565b7f455243373231456e756d657261626c653a206f776e657220696e646578206f7560008201527f74206f6620626f756e6473000000000000000000000000000000000000000000602082015250565b6000612f0e602b836125a4565b9150612f1982612eb2565b604082019050919050565b60006020820190508181036000830152612f3d81612f01565b9050919050565b7f455243373231456e756d657261626c653a20676c6f62616c20696e646578206f60008201527f7574206f6620626f756e64730000000000000000000000000000000000000000602082015250565b6000612fa0602c836125a4565b9150612fab82612f44565b604082019050919050565b60006020820190508181036000830152612fcf81612f93565b9050919050565b7f4e487b7100000000000000000000000000000000000000000000000000000000600052603260045260246000fd5b7f4552433732313a20696e76616c696420746f6b656e2049440000000000000000600082015250565b600061303b6018836125a4565b915061304682613005565b602082019050919050565b6000602082019050818103600083015261306a8161302e565b9050919050565b7f4552433732313a2061646472657373207a65726f206973206e6f74206120766160008201527f6c6964206f776e65720000000000000000000000000000000000000000000000602082015250565b60006130cd6029836125a4565b91506130d882613071565b604082019050919050565b600060208201905081810360008301526130fc816130c0565b9050919050565b7f5175616e74697479206d7573742062652067726561746572207468616e207a6560008201527f726f000000000000000000000000000000000000000000000000000000000000602082015250565b600061315f6022836125a4565b915061316a82613103565b604082019050919050565b6000602082019050818103600083015261318e81613152565b9050919050565b7f4e487b7100000000000000000000000000000000000000000000000000000000600052601160045260246000fd5b60006131cf8261264b565b91506131da8361264b565b92508282019050808211156131f2576131f1613195565b5b92915050565b7f4d6178696d756d204e465420737570706c792072656163686564000000000000600082015250565b600061322e601a836125a4565b9150613239826131f8565b602082019050919050565b6000602082019050818103600083015261325d81613221565b9050919050565b600061326f8261264b565b91507fffffffffffffffffffffffffffffffffffffffffffffffffffffffffffffffff82036132a1576132a0613195565b5b600182019050919050565b60008190508160005260206000209050919050565b60006020601f8301049050919050565b600082821b905092915050565b60006008830261330e7fffffffffffffffffffffffffffffffffffffffffffffffffffffffffffffffff826132d1565b61331886836132d1565b95508019841693508086168417925050509392505050565b6000819050919050565b600061335561335061334b8461264b565b613330565b61264b565b9050919050565b6000819050919050565b61336f8361333a565b61338361337b8261335c565b8484546132de565b825550505050565b600090565b61339861338b565b6133a3818484613366565b505050565b5b818110156133c7576133bc600082613390565b6001810190506133a9565b5050565b601f82111561340c576133dd816132ac565b6133e6846132c1565b810160208510156133f5578190505b613409613401856132c1565b8301826133a8565b50505b505050565b600082821c905092915050565b600061342f60001984600802613411565b1980831691505092915050565b6000613448838361341e565b9150826002028217905092915050565b61346182612599565b67ffffffffffffffff81111561347a57613479612896565b5b6134848254612ccb565b61348f8282856133cb565b600060209050601f8311600181146134c257600084156134b0578287015190505b6134ba858261343c565b865550613522565b601f1984166134d0866132ac565b60005b828110156134f8578489015182556001820191506020850194506020810190506134d3565b868310156135155784890151613511601f89168261341e565b8355505b6001600288020188555050505b505050505050565b600081905092915050565b600061354082612599565b61354a818561352a565b935061355a8185602086016125b5565b80840191505092915050565b60006135728285613535565b915061357e8284613535565b91508190509392505050565b7f4f776e61626c653a206e6577206f776e657220697320746865207a65726f206160008201527f6464726573730000000000000000000000000000000000000000000000000000602082015250565b60006135e66026836125a4565b91506135f18261358a565b604082019050919050565b60006020820190508181036000830152613615816135d9565b9050919050565b7f4552433732313a207472616e736665722066726f6d20696e636f72726563742060008201527f6f776e6572000000000000000000000000000000000000000000000000000000602082015250565b60006136786025836125a4565b91506136838261361c565b604082019050919050565b600060208201905081810360008301526136a78161366b565b9050919050565b7f4552433732313a207472616e7366657220746f20746865207a65726f2061646460008201527f7265737300000000000000000000000000000000000000000000000000000000602082015250565b600061370a6024836125a4565b9150613715826136ae565b604082019050919050565b60006020820190508181036000830152613739816136fd565b9050919050565b7f4f776e61626c653a2063616c6c6572206973206e6f7420746865206f776e6572600082015250565b60006137766020836125a4565b915061378182613740565b602082019050919050565b600060208201905081810360008301526137a581613769565b9050919050565b7f4552433732313a206d696e7420746f20746865207a65726f2061646472657373600082015250565b60006137e26020836125a4565b91506137ed826137ac565b602082019050919050565b60006020820190508181036000830152613811816137d5565b9050919050565b7f4552433732313a20746f6b656e20616c7265616479206d696e74656400000000600082015250565b600061384e601c836125a4565b915061385982613818565b602082019050919050565b6000602082019050818103600083015261387d81613841565b9050919050565b7f4552433732313a20617070726f766520746f2063616c6c657200000000000000600082015250565b60006138ba6019836125a4565b91506138c582613884565b602082019050919050565b600060208201905081810360008301526138e9816138ad565b9050919050565b7f4552433732313a207472616e7366657220746f206e6f6e20455243373231526560008201527f63656976657220696d706c656d656e7465720000000000000000000000000000602082015250565b600061394c6032836125a4565b9150613957826138f0565b604082019050919050565b6000602082019050818103600083015261397b8161393f565b9050919050565b7f4e487b7100000000000000000000000000000000000000000000000000000000600052601260045260246000fd5b7f455243373231456e756d657261626c653a20636f6e736563757469766520747260008201527f616e7366657273206e6f7420737570706f727465640000000000000000000000602082015250565b6000613a0d6035836125a4565b9150613a18826139b1565b604082019050919050565b60006020820190508181036000830152613a3c81613a00565b9050919050565b600081519050919050565b600082825260208201905092915050565b6000613a6a82613a43565b613a748185613a4e565b9350613a848185602086016125b5565b613a8d816125df565b840191505092915050565b6000608082019050613aad60008301876126e0565b613aba60208301866126e0565b613ac76040830185612776565b8181036060830152613ad98184613a5f565b905095945050505050565b600081519050613af38161250a565b92915050565b600060208284031215613b0f57613b0e6124d4565b5b6000613b1d84828501613ae4565b91505092915050565b6000613b318261264b565b9150613b3c8361264b565b9250828203905081811115613b5457613b53613195565b5b92915050565b7f4e487b7100000000000000000000000000000000000000000000000000000000600052603160045260246000fdfea264697066735822122012712577b9bea87542498f6a3c60a2ca5cf33cf03280321f6ed21a94b105fe3c64736f6c63430008120033697066733a2f2f62616679626569646d6d6536616d34793437696b72366b6571723363776834713770736a6e717569753373696565757865357268706566737a776d2f",
  "linkReferences": {},
  "deployedLinkReferences": {}
}