{
  "_format": "hh-sol-artifact-1",
  "contractName": "MyNFT",
  "sourceName": "contracts/MyNFT.sol",
  "abi": [
    {
      "inputs": [],
      "stateMutability": "nonpayable",
      "type": "constructor"
    },
    {
      "inputs": [],
      "name": "ApprovalCallerNotOwnerNorApproved",
      "type": "error"
    },
    {
      "inputs": [],
      "name": "ApprovalQueryForNonexistentToken",
      "type": "error"
    },
    {
      "inputs": [],
      "name": "BalanceQueryForZeroAddress",
      "type": "error"
    },
    {
      "inputs": [],
      "name": "MintERC2309QuantityExceedsLimit",
      "type": "error"
    },
    {
      "inputs": [],
      "name": "MintToZeroAddress",
      "type": "error"
    },
    {
      "inputs": [],
      "name": "MintZeroQuantity",
      "type": "error"
    },
    {
      "inputs": [],
      "name": "NotCompatibleWithSpotMints",
      "type": "error"
    },
    {
      "inputs": [
        {
          "internalType": "address",
          "name": "owner",
          "type": "address"
        }
      ],
      "name": "OwnableInvalidOwner",
      "type": "error"
    },
    {
      "inputs": [
        {
          "internalType": "address",
          "name": "account",
          "type": "address"
        }
      ],
      "name": "OwnableUnauthorizedAccount",
      "type": "error"
    },
    {
      "inputs": [],
      "name": "OwnerQueryForNonexistentToken",
      "type": "error"
    },
    {
      "inputs": [],
      "name": "OwnershipNotInitializedForExtraData",
      "type": "error"
    },
    {
      "inputs": [],
      "name": "SequentialMintExceedsLimit",
      "type": "error"
    },
    {
      "inputs": [],
      "name": "SequentialUpToTooSmall",
      "type": "error"
    },
    {
      "inputs": [],
      "name": "SpotMintTokenIdTooSmall",
      "type": "error"
    },
    {
      "inputs": [],
      "name": "TokenAlreadyExists",
      "type": "error"
    },
    {
      "inputs": [],
      "name": "TransferCallerNotOwnerNorApproved",
      "type": "error"
    },
    {
      "inputs": [],
      "name": "TransferFromIncorrectOwner",
      "type": "error"
    },
    {
      "inputs": [],
      "name": "TransferToNonERC721ReceiverImplementer",
      "type": "error"
    },
    {
      "inputs": [],
      "name": "TransferToZeroAddress",
      "type": "error"
    },
    {
      "inputs": [],
      "name": "URIQueryForNonexistentToken",
      "type": "error"
    },
    {
      "anonymous": false,
      "inputs": [
        {
          "indexed": true,
          "internalType": "address",
          "name": "owner",
          "type": "address"
        },
        {
          "indexed": true,
          "internalType": "address",
          "name": "approved",
          "type": "address"
        },
        {
          "indexed": true,
          "internalType": "uint256",
          "name": "tokenId",
          "type": "uint256"
        }
      ],
      "name": "Approval",
      "type": "event"
    },
    {
      "anonymous": false,
      "inputs": [
        {
          "indexed": true,
          "internalType": "address",
          "name": "owner",
          "type": "address"
        },
        {
          "indexed": true,
          "internalType": "address",
          "name": "operator",
          "type": "address"
        },
        {
          "indexed": false,
          "internalType": "bool",
          "name": "approved",
          "type": "bool"
        }
      ],
      "name": "ApprovalForAll",
      "type": "event"
    },
    {
      "anonymous": false,
      "inputs": [
        {
          "indexed": true,
          "internalType": "uint256",
          "name": "fromTokenId",
          "type": "uint256"
        },
        {
          "indexed": false,
          "internalType": "uint256",
          "name": "toTokenId",
          "type": "uint256"
        },
        {
          "indexed": true,
          "internalType": "address",
          "name": "from",
          "type": "address"
        },
        {
          "indexed": true,
          "internalType": "address",
          "name": "to",
          "type": "address"
        }
      ],
      "name": "ConsecutiveTransfer",
      "type": "event"
    },
    {
      "anonymous": false,
      "inputs": [
        {
          "indexed": true,
          "internalType": "address",
          "name": "previousOwner",
          "type": "address"
        },
        {
          "indexed": true,
          "internalType": "address",
          "name": "newOwner",
          "type": "address"
        }
      ],
      "name": "OwnershipTransferred",
      "type": "event"
    },
    {
      "anonymous": false,
      "inputs": [
        {
          "indexed": true,
          "internalType": "address",
          "name": "from",
          "type": "address"
        },
        {
          "indexed": true,
          "internalType": "address",
          "name": "to",
          "type": "address"
        },
        {
          "indexed": true,
          "internalType": "uint256",
          "name": "tokenId",
          "type": "uint256"
        }
      ],
      "name": "Transfer",
      "type": "event"
    },
    {
      "inputs": [
        {
          "internalType": "address",
          "name": "to",
          "type": "address"
        },
        {
          "internalType": "uint256",
          "name": "tokenId",
          "type": "uint256"
        }
      ],
      "name": "approve",
      "outputs": [],
      "stateMutability": "payable",
      "type": "function"
    },
    {
      "inputs": [
        {
          "internalType": "address",
          "name": "owner",
          "type": "address"
        }
      ],
      "name": "balanceOf",
      "outputs": [
        {
          "internalType": "uint256",
          "name": "",
          "type": "uint256"
        }
      ],
      "stateMutability": "view",
      "type": "function"
    },
    {
      "inputs": [
        {
          "internalType": "string[]",
          "name": "tokenURIs",
          "type": "string[]"
        },
        {
          "internalType": "string[]",
          "name": "prompts",
          "type": "string[]"
        }
      ],
      "name": "createNFTs",
      "outputs": [],
      "stateMutability": "nonpayable",
      "type": "function"
    },
    {
      "inputs": [
        {
          "internalType": "uint256",
          "name": "tokenId",
          "type": "uint256"
        }
      ],
      "name": "getApproved",
      "outputs": [
        {
          "internalType": "address",
          "name": "",
          "type": "address"
        }
      ],
      "stateMutability": "view",
      "type": "function"
    },
    {
      "inputs": [
        {
          "internalType": "address",
          "name": "owner",
          "type": "address"
        },
        {
          "internalType": "address",
          "name": "operator",
          "type": "address"
        }
      ],
      "name": "isApprovedForAll",
      "outputs": [
        {
          "internalType": "bool",
          "name": "",
          "type": "bool"
        }
      ],
      "stateMutability": "view",
      "type": "function"
    },
    {
      "inputs": [],
      "name": "name",
      "outputs": [
        {
          "internalType": "string",
          "name": "",
          "type": "string"
        }
      ],
      "stateMutability": "view",
      "type": "function"
    },
    {
      "inputs": [],
      "name": "owner",
      "outputs": [
        {
          "internalType": "address",
          "name": "",
          "type": "address"
        }
      ],
      "stateMutability": "view",
      "type": "function"
    },
    {
      "inputs": [
        {
          "internalType": "uint256",
          "name": "tokenId",
          "type": "uint256"
        }
      ],
      "name": "ownerOf",
      "outputs": [
        {
          "internalType": "address",
          "name": "",
          "type": "address"
        }
      ],
      "stateMutability": "view",
      "type": "function"
    },
    {
      "inputs": [
        {
          "internalType": "uint256",
          "name": "tokenId",
          "type": "uint256"
        }
      ],
      "name": "promptDescription",
      "outputs": [
        {
          "internalType": "string",
          "name": "",
          "type": "string"
        }
      ],
      "stateMutability": "view",
      "type": "function"
    },
    {
      "inputs": [],
      "name": "renounceOwnership",
      "outputs": [],
      "stateMutability": "nonpayable",
      "type": "function"
    },
    {
      "inputs": [
        {
          "internalType": "address",
          "name": "from",
          "type": "address"
        },
        {
          "internalType": "address",
          "name": "to",
          "type": "address"
        },
        {
          "internalType": "uint256",
          "name": "tokenId",
          "type": "uint256"
        }
      ],
      "name": "safeTransferFrom",
      "outputs": [],
      "stateMutability": "payable",
      "type": "function"
    },
    {
      "inputs": [
        {
          "internalType": "address",
          "name": "from",
          "type": "address"
        },
        {
          "internalType": "address",
          "name": "to",
          "type": "address"
        },
        {
          "internalType": "uint256",
          "name": "tokenId",
          "type": "uint256"
        },
        {
          "internalType": "bytes",
          "name": "_data",
          "type": "bytes"
        }
      ],
      "name": "safeTransferFrom",
      "outputs": [],
      "stateMutability": "payable",
      "type": "function"
    },
    {
      "inputs": [
        {
          "internalType": "address",
          "name": "operator",
          "type": "address"
        },
        {
          "internalType": "bool",
          "name": "approved",
          "type": "bool"
        }
      ],
      "name": "setApprovalForAll",
      "outputs": [],
      "stateMutability": "nonpayable",
      "type": "function"
    },
    {
      "inputs": [
        {
          "internalType": "bytes4",
          "name": "interfaceId",
          "type": "bytes4"
        }
      ],
      "name": "supportsInterface",
      "outputs": [
        {
          "internalType": "bool",
          "name": "",
          "type": "bool"
        }
      ],
      "stateMutability": "view",
      "type": "function"
    },
    {
      "inputs": [],
      "name": "symbol",
      "outputs": [
        {
          "internalType": "string",
          "name": "",
          "type": "string"
        }
      ],
      "stateMutability": "view",
      "type": "function"
    },
    {
      "inputs": [
        {
          "internalType": "uint256",
          "name": "tokenId",
          "type": "uint256"
        }
      ],
      "name": "tokenURI",
      "outputs": [
        {
          "internalType": "string",
          "name": "",
          "type": "string"
        }
      ],
      "stateMutability": "view",
      "type": "function"
    },
    {
      "inputs": [],
      "name": "totalSupply",
      "outputs": [
        {
          "internalType": "uint256",
          "name": "result",
          "type": "uint256"
        }
      ],
      "stateMutability": "view",
      "type": "function"
    },
    {
      "inputs": [
        {
          "internalType": "address",
          "name": "from",
          "type": "address"
        },
        {
          "internalType": "address",
          "name": "to",
          "type": "address"
        },
        {
          "internalType": "uint256",
          "name": "tokenId",
          "type": "uint256"
        }
      ],
      "name": "transferFrom",
      "outputs": [],
      "stateMutability": "payable",
      "type": "function"
    },
    {
      "inputs": [
        {
          "internalType": "address",
          "name": "newOwner",
          "type": "address"
        }
      ],
      "name": "transferOwnership",
      "outputs": [],
      "stateMutability": "nonpayable",
      "type": "function"
    }
  ],
  "bytecode": "0x60806040523480156200001157600080fd5b50336040518060400160405280600581526020017f4d794e46540000000000000000000000000000000000000000000000000000008152506040518060400160405280600481526020017f4d4e4654000000000000000000000000000000000000000000000000000000008152508160029081620000909190620004ff565b508060039081620000a29190620004ff565b50620000b36200018860201b60201c565b600081905550620000c96200018860201b60201c565b620000d96200018d60201b60201c565b1015620000f957620000f863fed8210f60e01b620001b560201b60201c565b5b5050600073ffffffffffffffffffffffffffffffffffffffff168173ffffffffffffffffffffffffffffffffffffffff1603620001705760006040517f1e4fbdf70000000000000000000000000000000000000000000000000000000081526004016200016791906200062b565b60405180910390fd5b6200018181620001bf60201b60201c565b5062000648565b600090565b60007fffffffffffffffffffffffffffffffffffffffffffffffffffffffffffffffff905090565b8060005260046000fd5b6000600960009054906101000a900473ffffffffffffffffffffffffffffffffffffffff16905081600960006101000a81548173ffffffffffffffffffffffffffffffffffffffff021916908373ffffffffffffffffffffffffffffffffffffffff1602179055508173ffffffffffffffffffffffffffffffffffffffff168173ffffffffffffffffffffffffffffffffffffffff167f8be0079c531659141344cd1fd0a4f28419497f9722a3daafe3b4186f6b6457e060405160405180910390a35050565b600081519050919050565b7f4e487b7100000000000000000000000000000000000000000000000000000000600052604160045260246000fd5b7f4e487b7100000000000000000000000000000000000000000000000000000000600052602260045260246000fd5b600060028204905060018216806200030757607f821691505b6020821081036200031d576200031c620002bf565b5b50919050565b60008190508160005260206000209050919050565b60006020601f8301049050919050565b600082821b905092915050565b600060088302620003877fffffffffffffffffffffffffffffffffffffffffffffffffffffffffffffffff8262000348565b62000393868362000348565b95508019841693508086168417925050509392505050565b6000819050919050565b6000819050919050565b6000620003e0620003da620003d484620003ab565b620003b5565b620003ab565b9050919050565b6000819050919050565b620003fc83620003bf565b620004146200040b82620003e7565b84845462000355565b825550505050565b600090565b6200042b6200041c565b62000438818484620003f1565b505050565b5b8181101562000460576200045460008262000421565b6001810190506200043e565b5050565b601f821115620004af57620004798162000323565b620004848462000338565b8101602085101562000494578190505b620004ac620004a38562000338565b8301826200043d565b50505b505050565b600082821c905092915050565b6000620004d460001984600802620004b4565b1980831691505092915050565b6000620004ef8383620004c1565b9150826002028217905092915050565b6200050a8262000285565b67ffffffffffffffff81111562000526576200052562000290565b5b620005328254620002ee565b6200053f82828562000464565b600060209050601f83116001811462000577576000841562000562578287015190505b6200056e8582620004e1565b865550620005de565b601f198416620005878662000323565b60005b82811015620005b1578489015182556001820191506020850194506020810190506200058a565b86831015620005d15784890151620005cd601f891682620004c1565b8355505b6001600288020188555050505b505050505050565b600073ffffffffffffffffffffffffffffffffffffffff82169050919050565b60006200061382620005e6565b9050919050565b620006258162000606565b82525050565b60006020820190506200064260008301846200061a565b92915050565b61264e80620006586000396000f3fe6080604052600436106101145760003560e01c8063715018a6116100a0578063a4f409b111610064578063a4f409b11461038a578063b88d4fde146103b3578063c87b56dd146103cf578063e985e9c51461040c578063f2fde38b1461044957610114565b8063715018a6146102b75780638da5cb5b146102ce5780638e5a8638146102f957806395d89b4114610336578063a22cb4651461036157610114565b806318160ddd116100e757806318160ddd146101da57806323b872dd1461020557806342842e0e146102215780636352211e1461023d57806370a082311461027a57610114565b806301ffc9a71461011957806306fdde0314610156578063081812fc14610181578063095ea7b3146101be575b600080fd5b34801561012557600080fd5b50610140600480360381019061013b9190611977565b610472565b60405161014d91906119bf565b60405180910390f35b34801561016257600080fd5b5061016b610504565b6040516101789190611a6a565b60405180910390f35b34801561018d57600080fd5b506101a860048036038101906101a39190611ac2565b610596565b6040516101b59190611b30565b60405180910390f35b6101d860048036038101906101d39190611b77565b6105f4565b005b3480156101e657600080fd5b506101ef610604565b6040516101fc9190611bc6565b60405180910390f35b61021f600480360381019061021a9190611be1565b610651565b005b61023b60048036038101906102369190611be1565b610912565b005b34801561024957600080fd5b50610264600480360381019061025f9190611ac2565b610932565b6040516102719190611b30565b60405180910390f35b34801561028657600080fd5b506102a1600480360381019061029c9190611c34565b610944565b6040516102ae9190611bc6565b60405180910390f35b3480156102c357600080fd5b506102cc6109db565b005b3480156102da57600080fd5b506102e36109ef565b6040516102f09190611b30565b60405180910390f35b34801561030557600080fd5b50610320600480360381019061031b9190611ac2565b610a19565b60405161032d9190611a6a565b60405180910390f35b34801561034257600080fd5b5061034b610abe565b6040516103589190611a6a565b60405180910390f35b34801561036d57600080fd5b5061038860048036038101906103839190611c8d565b610b50565b005b34801561039657600080fd5b506103b160048036038101906103ac9190611ee8565b610c5b565b005b6103cd60048036038101906103c89190612001565b610d6e565b005b3480156103db57600080fd5b506103f660048036038101906103f19190611ac2565b610dc0565b6040516104039190611a6a565b60405180910390f35b34801561041857600080fd5b50610433600480360381019061042e9190612084565b610ead565b60405161044091906119bf565b60405180910390f35b34801561045557600080fd5b50610470600480360381019061046b9190611c34565b610f41565b005b60006301ffc9a760e01b827bffffffffffffffffffffffffffffffffffffffffffffffffffffffff191614806104cd57506380ac58cd60e01b827bffffffffffffffffffffffffffffffffffffffffffffffffffffffff1916145b806104fd5750635b5e139f60e01b827bffffffffffffffffffffffffffffffffffffffffffffffffffffffff1916145b9050919050565b606060028054610513906120f3565b80601f016020809104026020016040519081016040528092919081815260200182805461053f906120f3565b801561058c5780601f106105615761010080835404028352916020019161058c565b820191906000526020600020905b81548152906001019060200180831161056f57829003601f168201915b5050505050905090565b60006105a182610fc7565b6105b6576105b563cf4700e460e01b611073565b5b6006600083815260200190815260200160002060000160009054906101000a900473ffffffffffffffffffffffffffffffffffffffff169050919050565b6106008282600161107d565b5050565b600061060e6111ac565b600154600054030390507fffffffffffffffffffffffffffffffffffffffffffffffffffffffffffffffff6106416111b1565b1461064e57600854810190505b90565b600061065c826111d9565b905073ffffffffffffffffffffffffffffffffffffffff8473ffffffffffffffffffffffffffffffffffffffff161693508373ffffffffffffffffffffffffffffffffffffffff168173ffffffffffffffffffffffffffffffffffffffff16146106d1576106d063a114810060e01b611073565b5b6000806106dd846112f2565b915091506106f381876106ee611319565b611321565b61071e5761070886610703611319565b610ead565b61071d5761071c6359c896be60e01b611073565b5b5b61072b8686866001611365565b801561073657600082555b600560008773ffffffffffffffffffffffffffffffffffffffff1673ffffffffffffffffffffffffffffffffffffffff168152602001908152602001600020600081546001900391905081905550600560008673ffffffffffffffffffffffffffffffffffffffff1673ffffffffffffffffffffffffffffffffffffffff1681526020019081526020016000206000815460010191905081905550610804856107e088888761136b565b7c020000000000000000000000000000000000000000000000000000000017611393565b600460008681526020019081526020016000208190555060007c020000000000000000000000000000000000000000000000000000000084160361088a5760006001850190506000600460008381526020019081526020016000205403610888576000548114610887578360046000838152602001908152602001600020819055505b5b505b600073ffffffffffffffffffffffffffffffffffffffff8673ffffffffffffffffffffffffffffffffffffffff161690508481887fddf252ad1be2c89b69c2b068fc378daa952ba7f163c4a11628f55a4df523b3ef600080a4600081036108fc576108fb63ea553b3460e01b611073565b5b61090987878760016113be565b50505050505050565b61092d83838360405180602001604052806000815250610d6e565b505050565b600061093d826111d9565b9050919050565b60008073ffffffffffffffffffffffffffffffffffffffff168273ffffffffffffffffffffffffffffffffffffffff160361098a57610989638f4eb60460e01b611073565b5b67ffffffffffffffff600560008473ffffffffffffffffffffffffffffffffffffffff1673ffffffffffffffffffffffffffffffffffffffff16815260200190815260200160002054169050919050565b6109e36113c4565b6109ed600061144b565b565b6000600960009054906101000a900473ffffffffffffffffffffffffffffffffffffffff16905090565b6060600a60008381526020019081526020016000208054610a39906120f3565b80601f0160208091040260200160405190810160405280929190818152602001828054610a65906120f3565b8015610ab25780601f10610a8757610100808354040283529160200191610ab2565b820191906000526020600020905b815481529060010190602001808311610a9557829003601f168201915b50505050509050919050565b606060038054610acd906120f3565b80601f0160208091040260200160405190810160405280929190818152602001828054610af9906120f3565b8015610b465780601f10610b1b57610100808354040283529160200191610b46565b820191906000526020600020905b815481529060010190602001808311610b2957829003601f168201915b5050505050905090565b8060076000610b5d611319565b73ffffffffffffffffffffffffffffffffffffffff1673ffffffffffffffffffffffffffffffffffffffff16815260200190815260200160002060008473ffffffffffffffffffffffffffffffffffffffff1673ffffffffffffffffffffffffffffffffffffffff16815260200190815260200160002060006101000a81548160ff0219169083151502179055508173ffffffffffffffffffffffffffffffffffffffff16610c0a611319565b73ffffffffffffffffffffffffffffffffffffffff167f17307eab39ab6107e8899845ad3d59bd9653f200f220920489ca2b5937696c3183604051610c4f91906119bf565b60405180910390a35050565b610c636113c4565b8051825114610ca7576040517f08c379a0000000000000000000000000000000000000000000000000000000008152600401610c9e90612170565b60405180910390fd5b6000610cb1611511565b9050600083519050610cc3338261155a565b60005b81811015610d6757838181518110610ce157610ce0612190565b5b6020026020010151600a60008386610cf991906121ee565b81526020019081526020016000209081610d1391906123ce565b50848181518110610d2757610d26612190565b5b6020026020010151600b60008386610d3f91906121ee565b81526020019081526020016000209081610d5991906123ce565b508080600101915050610cc6565b5050505050565b610d79848484610651565b60008373ffffffffffffffffffffffffffffffffffffffff163b14610dba57610da484848484611578565b610db957610db863d1a57ed660e01b611073565b5b5b50505050565b6060610dcb82610fc7565b610e0a576040517f08c379a0000000000000000000000000000000000000000000000000000000008152600401610e01906124ec565b60405180910390fd5b600b60008381526020019081526020016000208054610e28906120f3565b80601f0160208091040260200160405190810160405280929190818152602001828054610e54906120f3565b8015610ea15780601f10610e7657610100808354040283529160200191610ea1565b820191906000526020600020905b815481529060010190602001808311610e8457829003601f168201915b50505050509050919050565b6000600760008473ffffffffffffffffffffffffffffffffffffffff1673ffffffffffffffffffffffffffffffffffffffff16815260200190815260200160002060008373ffffffffffffffffffffffffffffffffffffffff1673ffffffffffffffffffffffffffffffffffffffff16815260200190815260200160002060009054906101000a900460ff16905092915050565b610f496113c4565b600073ffffffffffffffffffffffffffffffffffffffff168173ffffffffffffffffffffffffffffffffffffffff1603610fbb5760006040517f1e4fbdf7000000000000000000000000000000000000000000000000000000008152600401610fb29190611b30565b60405180910390fd5b610fc48161144b565b50565b600081610fd26111ac565b1161106d57610fdf6111b1565b8211156110095761100260046000848152602001908152602001600020546116a7565b905061106e565b60005482101561106c5760005b6000600460008581526020019081526020016000205491508103611045578261103e9061250c565b9250611016565b60007c01000000000000000000000000000000000000000000000000000000008216149150505b5b5b919050565b8060005260046000fd5b600061108883610932565b90508180156110ca57508073ffffffffffffffffffffffffffffffffffffffff166110b1611319565b73ffffffffffffffffffffffffffffffffffffffff1614155b156110f6576110e0816110db611319565b610ead565b6110f5576110f463cfb3b94260e01b611073565b5b5b836006600085815260200190815260200160002060000160006101000a81548173ffffffffffffffffffffffffffffffffffffffff021916908373ffffffffffffffffffffffffffffffffffffffff160217905550828473ffffffffffffffffffffffffffffffffffffffff168273ffffffffffffffffffffffffffffffffffffffff167f8c5be1e5ebec7d5bd14f71427d1e84f3dd0314c0f7b2291e5b200ac8c7c3b92560405160405180910390a450505050565b600090565b60007fffffffffffffffffffffffffffffffffffffffffffffffffffffffffffffffff905090565b6000816111e46111ac565b116112dc57600460008381526020019081526020016000205490506112076111b1565b82111561122c57611217816116a7565b6112ed5761122b63df2d9b4260e01b611073565b5b600081036112b357600054821061124e5761124d63df2d9b4260e01b611073565b5b5b600460008360019003935083815260200190815260200160002054905060008103156112ae5760007c0100000000000000000000000000000000000000000000000000000000821603156112ed576112ad63df2d9b4260e01b611073565b5b61124f565b60007c0100000000000000000000000000000000000000000000000000000000821603156112ed575b6112ec63df2d9b4260e01b611073565b5b919050565b60008060006006600085815260200190815260200160002090508092508254915050915091565b600033905090565b600073ffffffffffffffffffffffffffffffffffffffff8316925073ffffffffffffffffffffffffffffffffffffffff821691508382148383141790509392505050565b50505050565b60008060e883901c905060e86113828686846116e8565b62ffffff16901b9150509392505050565b600073ffffffffffffffffffffffffffffffffffffffff83169250814260a01b178317905092915050565b50505050565b6113cc6116f1565b73ffffffffffffffffffffffffffffffffffffffff166113ea6109ef565b73ffffffffffffffffffffffffffffffffffffffff16146114495761140d6116f1565b6040517f118cdaa70000000000000000000000000000000000000000000000000000000081526004016114409190611b30565b60405180910390fd5b565b6000600960009054906101000a900473ffffffffffffffffffffffffffffffffffffffff16905081600960006101000a81548173ffffffffffffffffffffffffffffffffffffffff021916908373ffffffffffffffffffffffffffffffffffffffff1602179055508173ffffffffffffffffffffffffffffffffffffffff168173ffffffffffffffffffffffffffffffffffffffff167f8be0079c531659141344cd1fd0a4f28419497f9722a3daafe3b4186f6b6457e060405160405180910390a35050565b600061151b6111ac565b6000540390507fffffffffffffffffffffffffffffffffffffffffffffffffffffffffffffffff61154a6111b1565b1461155757600854810190505b90565b6115748282604051806020016040528060008152506116f9565b5050565b60008373ffffffffffffffffffffffffffffffffffffffff1663150b7a0261159e611319565b8786866040518563ffffffff1660e01b81526004016115c0949392919061258a565b6020604051808303816000875af19250505080156115fc57506040513d601f19601f820116820180604052508101906115f991906125eb565b60015b611654573d806000811461162c576040519150601f19603f3d011682016040523d82523d6000602084013e611631565b606091505b50600081510361164c5761164b63d1a57ed660e01b611073565b5b805181602001fd5b63150b7a0260e01b7bffffffffffffffffffffffffffffffffffffffffffffffffffffffff1916817bffffffffffffffffffffffffffffffffffffffffffffffffffffffff191614915050949350505050565b60007c0100000000000000000000000000000000000000000000000000000000821673ffffffffffffffffffffffffffffffffffffffff8316119050919050565b60009392505050565b600033905090565b6117038383611775565b60008373ffffffffffffffffffffffffffffffffffffffff163b1461177057600080549050600083820390505b6117436000868380600101945086611578565b6117585761175763d1a57ed660e01b611073565b5b81811061173057816000541461176d57600080fd5b50505b505050565b600080549050600082036117945761179363b562e8dd60e01b611073565b5b6117a16000848385611365565b6117c1836117b2600086600061136b565b6117bb856118fb565b17611393565b6004600083815260200190815260200160002081905550600160406001901b178202600560008573ffffffffffffffffffffffffffffffffffffffff1673ffffffffffffffffffffffffffffffffffffffff16815260200190815260200160002060008282540192505081905550600073ffffffffffffffffffffffffffffffffffffffff8473ffffffffffffffffffffffffffffffffffffffff161690506000810361187957611878632e07630060e01b611073565b5b60008383019050600083905061188d6111b1565b6001830311156118a8576118a76381647e3a60e01b611073565b5b5b808360007fddf252ad1be2c89b69c2b068fc378daa952ba7f163c4a11628f55a4df523b3ef600080a48181600101915081036118a957816000819055505050506118f660008483856113be565b505050565b60006001821460e11b9050919050565b6000604051905090565b600080fd5b600080fd5b60007fffffffff0000000000000000000000000000000000000000000000000000000082169050919050565b6119548161191f565b811461195f57600080fd5b50565b6000813590506119718161194b565b92915050565b60006020828403121561198d5761198c611915565b5b600061199b84828501611962565b91505092915050565b60008115159050919050565b6119b9816119a4565b82525050565b60006020820190506119d460008301846119b0565b92915050565b600081519050919050565b600082825260208201905092915050565b60005b83811015611a145780820151818401526020810190506119f9565b60008484015250505050565b6000601f19601f8301169050919050565b6000611a3c826119da565b611a4681856119e5565b9350611a568185602086016119f6565b611a5f81611a20565b840191505092915050565b60006020820190508181036000830152611a848184611a31565b905092915050565b6000819050919050565b611a9f81611a8c565b8114611aaa57600080fd5b50565b600081359050611abc81611a96565b92915050565b600060208284031215611ad857611ad7611915565b5b6000611ae684828501611aad565b91505092915050565b600073ffffffffffffffffffffffffffffffffffffffff82169050919050565b6000611b1a82611aef565b9050919050565b611b2a81611b0f565b82525050565b6000602082019050611b456000830184611b21565b92915050565b611b5481611b0f565b8114611b5f57600080fd5b50565b600081359050611b7181611b4b565b92915050565b60008060408385031215611b8e57611b8d611915565b5b6000611b9c85828601611b62565b9250506020611bad85828601611aad565b9150509250929050565b611bc081611a8c565b82525050565b6000602082019050611bdb6000830184611bb7565b92915050565b600080600060608486031215611bfa57611bf9611915565b5b6000611c0886828701611b62565b9350506020611c1986828701611b62565b9250506040611c2a86828701611aad565b9150509250925092565b600060208284031215611c4a57611c49611915565b5b6000611c5884828501611b62565b91505092915050565b611c6a816119a4565b8114611c7557600080fd5b50565b600081359050611c8781611c61565b92915050565b60008060408385031215611ca457611ca3611915565b5b6000611cb285828601611b62565b9250506020611cc385828601611c78565b9150509250929050565b600080fd5b7f4e487b7100000000000000000000000000000000000000000000000000000000600052604160045260246000fd5b611d0a82611a20565b810181811067ffffffffffffffff82111715611d2957611d28611cd2565b5b80604052505050565b6000611d3c61190b565b9050611d488282611d01565b919050565b600067ffffffffffffffff821115611d6857611d67611cd2565b5b602082029050602081019050919050565b600080fd5b600080fd5b600067ffffffffffffffff821115611d9e57611d9d611cd2565b5b611da782611a20565b9050602081019050919050565b82818337600083830152505050565b6000611dd6611dd184611d83565b611d32565b905082815260208101848484011115611df257611df1611d7e565b5b611dfd848285611db4565b509392505050565b600082601f830112611e1a57611e19611ccd565b5b8135611e2a848260208601611dc3565b91505092915050565b6000611e46611e4184611d4d565b611d32565b90508083825260208201905060208402830185811115611e6957611e68611d79565b5b835b81811015611eb057803567ffffffffffffffff811115611e8e57611e8d611ccd565b5b808601611e9b8982611e05565b85526020850194505050602081019050611e6b565b5050509392505050565b600082601f830112611ecf57611ece611ccd565b5b8135611edf848260208601611e33565b91505092915050565b60008060408385031215611eff57611efe611915565b5b600083013567ffffffffffffffff811115611f1d57611f1c61191a565b5b611f2985828601611eba565b925050602083013567ffffffffffffffff811115611f4a57611f4961191a565b5b611f5685828601611eba565b9150509250929050565b600067ffffffffffffffff821115611f7b57611f7a611cd2565b5b611f8482611a20565b9050602081019050919050565b6000611fa4611f9f84611f60565b611d32565b905082815260208101848484011115611fc057611fbf611d7e565b5b611fcb848285611db4565b509392505050565b600082601f830112611fe857611fe7611ccd565b5b8135611ff8848260208601611f91565b91505092915050565b6000806000806080858703121561201b5761201a611915565b5b600061202987828801611b62565b945050602061203a87828801611b62565b935050604061204b87828801611aad565b925050606085013567ffffffffffffffff81111561206c5761206b61191a565b5b61207887828801611fd3565b91505092959194509250565b6000806040838503121561209b5761209a611915565b5b60006120a985828601611b62565b92505060206120ba85828601611b62565b9150509250929050565b7f4e487b7100000000000000000000000000000000000000000000000000000000600052602260045260246000fd5b6000600282049050600182168061210b57607f821691505b60208210810361211e5761211d6120c4565b5b50919050565b7f4d69736d61746368656420696e70757473000000000000000000000000000000600082015250565b600061215a6011836119e5565b915061216582612124565b602082019050919050565b600060208201905081810360008301526121898161214d565b9050919050565b7f4e487b7100000000000000000000000000000000000000000000000000000000600052603260045260246000fd5b7f4e487b7100000000000000000000000000000000000000000000000000000000600052601160045260246000fd5b60006121f982611a8c565b915061220483611a8c565b925082820190508082111561221c5761221b6121bf565b5b92915050565b60008190508160005260206000209050919050565b60006020601f8301049050919050565b600082821b905092915050565b6000600883026122847fffffffffffffffffffffffffffffffffffffffffffffffffffffffffffffffff82612247565b61228e8683612247565b95508019841693508086168417925050509392505050565b6000819050919050565b60006122cb6122c66122c184611a8c565b6122a6565b611a8c565b9050919050565b6000819050919050565b6122e5836122b0565b6122f96122f1826122d2565b848454612254565b825550505050565b600090565b61230e612301565b6123198184846122dc565b505050565b5b8181101561233d57612332600082612306565b60018101905061231f565b5050565b601f8211156123825761235381612222565b61235c84612237565b8101602085101561236b578190505b61237f61237785612237565b83018261231e565b50505b505050565b600082821c905092915050565b60006123a560001984600802612387565b1980831691505092915050565b60006123be8383612394565b9150826002028217905092915050565b6123d7826119da565b67ffffffffffffffff8111156123f0576123ef611cd2565b5b6123fa82546120f3565b612405828285612341565b600060209050601f8311600181146124385760008415612426578287015190505b61243085826123b2565b865550612498565b601f19841661244686612222565b60005b8281101561246e57848901518255600182019150602085019450602081019050612449565b8683101561248b5784890151612487601f891682612394565b8355505b6001600288020188555050505b505050505050565b7f55524920717565727920666f72206e6f6e6578697374656e7420746f6b656e00600082015250565b60006124d6601f836119e5565b91506124e1826124a0565b602082019050919050565b60006020820190508181036000830152612505816124c9565b9050919050565b600061251782611a8c565b91506000820361252a576125296121bf565b5b600182039050919050565b600081519050919050565b600082825260208201905092915050565b600061255c82612535565b6125668185612540565b93506125768185602086016119f6565b61257f81611a20565b840191505092915050565b600060808201905061259f6000830187611b21565b6125ac6020830186611b21565b6125b96040830185611bb7565b81810360608301526125cb8184612551565b905095945050505050565b6000815190506125e58161194b565b92915050565b60006020828403121561260157612600611915565b5b600061260f848285016125d6565b9150509291505056fea26469706673582212207fc741fb8281b8d62757479c38bca55d95f3b5cc6dba10601fe955f27948d20c64736f6c63430008180033",
  "linkReferences": {},
  "deployedLinkReferences": {}
}